:100000000C942B010C943D010C943D010C943D018A
:100010000C943D010C943D010C943D010C943D0168
:100020000C943D010C943D010C943D010C943D0158
:100030000C943D010C943D010C943D010C943D0148
:100040000C943D010C943D010C943D010C943D0138
:100050000C943D010C943D010C943D010C943D0128
:100060000C943D010C943D01557261205552412084
:100070007572612000000000000000004F000000C9
:1000800007000700147F147F14242A7F2A122313E9
:1000900008646236495522500005030000001C2206
:1000A00041000041221C0014083E081408083E08C4
:1000B00008005030000008080808080060600000D0
:1000C00020100804023E5149453E00427F40004254
:1000D000615149462141454B311814127F10274583
:1000E0004545393C4A4949300371090503364949B8
:1000F0004936064949291E006C6C0000005636003E
:10010000000814224100141414141400412214088D
:100110000201510906324979413E7E1111117E7F5B
:100120004949493E3E414141227F4141413E7F494B
:100130004949497F090909013E4149493A7F08086F
:10014000087F41417F41413041413F017F081422F6
:10015000417F404040407F020C027F7F0408107FB7
:100160003E4141413E7F090909063E4151215E7FE2
:1001700009091966464949493101017F01013F409A
:1001800040403F0F3040300F3F4038403F6314083D
:100190001463030478040361514945437F414100DE
:1001A000000204081020000041417F040201020403
:1001B0004040404040000102040020545454787FE5
:1001C000484444383844444420384444487F3854F0
:1001D000545418087E0901020C5252523E7F080402
:1001E000047800447D40002040443D007F102844B6
:1001F0000000417F400078040804787C08040478FB
:1002000038444444387C141414080814147C007CCA
:10021000080404084854545420043F4440203C40FF
:1002200040207C1C2040201C3C4030403C44281096
:1002300028440C5050503C4464544C44000836410F
:100240000000007F00000041360800080404080494
:1002500000000000000011241FBECFEFD8E0DEBF79
:10026000CDBF21E0A0E0B1E001C01D92A031B207F6
:10027000E1F70E943F010C9444020C9400000E949C
:100280004E010E9466010E949F010E94B4016DE030
:1002900070E088E690E00E941F02F9CF229A2A9A25
:1002A000239A259A8CB580618CBD8CB580648CBDF9
:1002B00008958EBD0DB407FEFDCF0895CF93C62FD0
:1002C0000E9459018C2FCF910C9459012A988AE0F1
:1002D0000E94590181E00E9459018AE00E9459015F
:1002E00081E00E9459012A9A2A988BE00E945901C4
:1002F00087E00E9459018BE00E94590187E00E942B
:1003000059012A9A2A988CE00E94590181E00E94A2
:1003100059018CE00E94590181E00E9459012A9AFA
:100320002A988FE00E94590180E00E9459018FE0D5
:100330000E94590180E00E9459012A9A0895CF93A2
:10034000C1E02A988C2F0E94590180E00E94590137
:100350008C2F0E94590180E00E9459012A9ACF5F98
:10036000C93079F7CF910895E0E0F1E0119281E092
:10037000E031F807D9F70895E0E0F1E09181919339
:1003800091E0EF30F907D1F780930F010895EF92D4
:10039000FF920F931F93CF93DF9300E011E0D0E023
:1003A0007801C1E02A9880E08D17B0F0F7016191E3
:1003B0007F018C2F0E945E01D11104C060E080E0BB
:1003C0000E945E012A9ACF5FC93061F7085F1F4F14
:1003D000D13041F0D1E0E4CF60E080E00E945E01E6
:1003E00081E0E2CFDF91CF911F910F91FF90EF90CD
:1003F00008950F931F93CF93DF9325E0829F800191
:100400001124D0E0C0E00B581F4FF801EC0FFD1F86
:1004100084910E94BC010E94C7018FEF9DEE22E0F3
:10042000815090402040E1F700C000002196C53087
:10043000D10559F7DF91CF911F910F9108950F9337
:100440001F93CF93DF93EC018C01060F171FC0178A
:10045000D10729F4DF91CF911F910F910895FE01EB
:10046000849180520E94F90180E00E94BC010E94A8
:10047000C701FFEF2DEE82E0F15020408040E1F710
:0C04800000C000002196E3CFF894FFCFED
:00000001FF
