:100000000C9434000C9451000C9451000C94510049
:100010000C9451000C9451000C9451000C9451001C
:100020000C9451000C9451000C9451000C9451000C
:100030000C9451000C9451000C9451000C945100FC
:100040000C9451000C9451000C9451000C945100EC
:100050000C9451000C9451000C9451000C945100DC
:100060000C9451000C94510011241FBECFEFD8E026
:10007000DEBFCDBF11E0A0E0B1E0EAE1F3E002C0F5
:1000800005900D92A430B107D9F721E0A4E0B1E0CA
:1000900001C01D92AC30B207E1F70E9450010C94F0
:1000A0008B010C94000080910A018F5F853098F4D9
:1000B00080930A0110920B01109202011092070125
:1000C00080910A01833019F48FE08093070181E069
:1000D00080930001089510920A01ECCF811102C0B3
:1000E0000C9453000895811106C08091050191E0A0
:1000F000892780930501089580910B018F5F8531D9
:1001000018F480930B01089510920B018091020165
:100110008BB980910201880F19F080930201089534
:1001200081E0FBCF80910B018F5F853118F48093C4
:100130000B01089510920B01809102018BB98091FF
:100140000201869519F080930201089580E8FBCFA3
:1001500080910B018F5F80930B01853148F1809175
:1001600007019091000110920B018BB98091010160
:10017000992379F090910701982B90930701880FAC
:1001800080930101809107018F3F59F41092000183
:10019000089590910701982390930701880F81603B
:1001A000EFCF811105C081E08093010180930001B0
:1001B000089580910B018F5F80930B01853158F179
:1001C000809107019091000110920B018BB98091F1
:1001D0000101992379F090910701982B90930701E1
:1001E000880F80930101809107018F3F69F410927D
:1001F00000010895282F2095909107019223909354
:100200000701880F8160EDCF811105C081E08093E7
:10021000010180930001089580910B018F5F85316A
:1002200018F480930B01089510920B01809107013F
:100230008BB980910701880F811D80930701089574
:1002400080910401880F80930401199B03C0816091
:100250008093040180910401982F9770943019F4D1
:1002600091E0909306018F708330C9F410920601DB
:100270008091050120910801309109012134364017
:1002800030F0882341F00E9453008091050191E0F5
:1002900089278093050110920901109208010895A1
:1002A0001092C1008FEF8AB914B8809105018111B5
:1002B00009C080910A01823041F1D0F48823F9F01D
:1002C000813001F10E94200180910601882349F0CC
:1002D00080910801909109010A96909309018093F9
:1002E00008018FE39CE90197F1F700C00000DDCF22
:1002F000833071F0843031F70E94A800E3CF0E9470
:100300007C00E0CF0E949200DDCF0E94D900DACFBE
:0A0310000E940C01D7CFF894FFCF34
:04031A0001010100DC
:00000001FF
