:100000000C9434000C9451000C9451000C94510049
:100010000C9451000C9451000C9451000C9451001C
:100020000C9451000C9451000C9451000C9451000C
:100030000C9451000C9451000C9451000C945100FC
:100040000C9451000C9451000C9451000C945100EC
:100050000C9451000C9451000C9451000C945100DC
:100060000C9451000C94510011241FBECFEFD8E026
:10007000DEBFCDBF11E0A0E0B1E0E4E2F3E002C0FA
:1000800005900D92A430B107D9F721E0A4E0B1E0CA
:1000900001C01D92AC30B207E1F70E9453010C94ED
:1000A00090010C94000080910A018F5F853098F4D4
:1000B00080930A0110920B01109202011092070125
:1000C00080910A01833019F48FE08093070181E069
:1000D00080930001089510920A01ECCF80910501F0
:1000E000811104C081E080930501089510920501FB
:1000F0000895811102C00C9453000895811102C02B
:100100000C946E00089580910B018F5F853118F477
:1001100080930B01089510920B01809102018BB91D
:1001200080910201880F19F080930201089581E007
:10013000FBCF80910B018F5F853118F480930B0109
:10014000089510920B01809102018BB980910201F8
:10015000869519F080930201089580E8FBCF809185
:100160000B018F5F80930B01853148F1809107016E
:100170009091000110920B018BB98091010199239C
:1001800079F090910701982B90930701880F809345
:100190000101809107018F3F59F4109200010895E9
:1001A00090910701982390930701880F8160EFCF0A
:1001B000811105C081E080930101809300010895C1
:1001C00080910B018F5F80930B01853158F18091F5
:1001D00007019091000110920B018BB980910101F0
:1001E000992379F090910701982B90930701880F3C
:1001F00080930101809107018F3F69F41092000103
:100200000895282F2095909107019223909307013C
:10021000880F8160EDCF811105C081E080930101DD
:1002200080930001089580910B018F5F853118F450
:1002300080930B01089510920B01809107018BB9F7
:1002400080910701880F811D809307010895809197
:100250000401880F80930401199B03C0816080937F
:10026000040180910401982F9770943019F491E063
:10027000909306018F708330A9F41092060180914B
:100280000801909109018134964030F08091050178
:10029000882321F00E9453000E946E0010920901F1
:1002A0001092080108951092C1008FEF8AB914B816
:1002B0008091050181111EC080910A01811102C047
:1002C0000E94830080910A01813011F40E949900FC
:1002D00080910A01823011F40E94E00080910A01AD
:1002E000833011F40E94130180910A01843011F4CB
:1002F0000E94AF000E94270180910601882349F0E7
:1003000080910801909109010A96909309018093C8
:1003100008018FE39CE90197F1F700C00000C8CF06
:04032000F894FFCF7F
:0403240001010100D2
:00000001FF
