:100000000C9434000C9449000C9449000C94490061
:100010000C9449000C9449000C9449000C9449003C
:100020000C9449000C9449000C9449000C9449002C
:100030000C9449000C9449000C9449000C9449001C
:100040000C9449000C9449000C9449000C9449000C
:100050000C9449000C9449000C9449000C944900FC
:100060000C9449000C94490011241FBECFEFD8E036
:10007000DEBFCDBF11E0A0E0B1E0EAE5F1E002C0F3
:1000800005900D92AC30B107D9F70E94A5000C94F1
:10009000AB000C94000028982FEF83EC99E02150DE
:1000A00080409040E1F700C00000289A2FEF83ECD9
:1000B00099E0215080409040E1F700C00000089591
:1000C00028982FEF8BE49DE1215080409040E1F78C
:1000D00000C00000289A2FEF83EC99E02150804067
:1000E0009040E1F700C0000008951F93CF93DF9385
:1000F000EC0110E0812F90E0FE0101900020E9F773
:100100003197EC1BFD0B8E179F0720F0DF91CF91ED
:100110001F9108958C0F9D1FFC0180818D3291F0FD
:100120008E3261F0803261F4FFEF23ED80E3F15015
:1001300020408040E1F700C0000002C00E944B0058
:100140001F5FD8CF0E946000FBCF209A80E091E033
:0A0150000E947500FBCFF894FFCF6A
:0C015A002E2E2E2D2D2D2E2E2E200000DE
:00000001FF
