:100000000C9434000C9446000C9446000C9446006A
:100010000C9446000C9446000C9446000C94460048
:100020000C9446000C9446000C9446000C94460038
:100030000C9446000C9446000C9446000C94460028
:100040000C9446000C9446000C9446000C94460018
:100050000C9446000C9446000C9446000C94460008
:100060000C9446000C94460011241FBECFEFD8E03C
:10007000DEBFCDBF21E0A0E0B1E001C01D92A33002
:10008000B207E1F70E9495000C94C2000C940000A6
:100090001092C1008FEF8AB91BB814B80895FC0103
:1000A0009BB19F5F9BB990819F5F90830895FC01F6
:1000B0008081882339F08BB181508BB98081815048
:1000C000808308958FE380838FEF8BB90895282F65
:1000D000CB01213031F018F0223029F008950C9432
:1000E0004F000C945700FB0110821BB80895E82FB5
:1000F000F0E0E050FF4F9081990F908323B130E002
:10010000082E02C0359527950A94E2F720FF02C019
:100110009160908390819770943011F40C946700F3
:100120000895FC0110821BB80895CF93DF931F92AE
:10013000CDB7DEB70E9448001982BE016F5F7F4FC6
:1001400080E00E9477008FE39CE90197F1F700C0FF
:100150000000BE016F5F7F4F81E00E9477008FE358
:100160009CE90197F1F700C00000BE016F5F7F4F6F
:1001700082E00E9477008FE39CE90197F1F700C0CD
:080180000000DBCFF894FFCF73
:00000001FF
