:100000000C9434000C9451000C9451000C94510049
:100010000C9451000C9451000C9451000C9451001C
:100020000C9451000C9451000C9451000C9451000C
:100030000C9451000C9451000C9451000C945100FC
:100040000C9451000C9451000C9451000C945100EC
:100050000C9451000C9451000C9451000C945100DC
:100060000C9451000C94510011241FBECFEFD8E026
:10007000DEBFCDBF11E0A0E0B1E0ECE8F6E002C0E9
:1000800005900D92AE34B107D9F721E0AEE4B1E0AE
:1000900001C01D92A239B207E1F70E94AB010C9496
:1000A00044030C94000084B18C6284B980E58CBD5B
:1000B00008958EBD0DB407FEFDCF8EB508958EBD9B
:1000C0000DB407FEFDCF6EBD0DB407FEFDCF089544
:1000D000CF92DF92EF92FF920F931F93CF93DF9314
:1000E000CDB7DEB72A970FB6F894DEBF0FBECDBFEF
:1000F0008AE0E2E0F1E0DE01119601900D928A952E
:10010000E1F70E9453002A9A8E010F5F1F4F6E0184
:100110008BE0C80ED11C2A98F801E080F1800E5FB8
:100120001F4F6E2D8F2D0E945F006E2D8F2D0E9410
:100130005F002A9AC016D10671F710E02A981F5F57
:1001400060E0812F0E945F0060E0812F0E945F00CD
:100150002A9A183099F72A960FB6F894DEBF0FBE88
:10016000CDBFDF91CF911F910F91FF90EF90DF9066
:10017000CF900895EF92FF920F931F93CF9383FB3D
:10018000222720F930E093E0220F331F9A95E1F700
:10019000E62FE770E20FF32FF11DEE5AFE4F20819C
:1001A000382F377081E090E001C0880F3A95EAF768
:1001B00041111DC080958223808302E511E0C0E0DB
:1001C0002A98CF5FF80160858C2F0E945F00F801AC
:1001D00060810F5F1F4F8C2F0E945F002A9AC830EA
:1001E00079F7CF911F910F91FF90EF900895822B97
:1001F000E3CFEF92FF920F931F93CF9302E511E0AD
:10020000C0E02A98CF5FF80160858C2F0E945F00C4
:10021000F80160810F5F1F4F8C2F0E945F002A9AA8
:10022000C83079F7CF911F910F91FF90EF9008950B
:10023000E2E5F1E02081DF0190E08C9186958C93DE
:1002400018963C91189730FF02C080688C939F5F8E
:100250001896973091F780AD869520FD07C080AF46
:10026000319681E0EA35F80729F708958068F7CFDD
:10027000089580910001880F80930001199B03C0AD
:1002800081608093000180910001982F97709430D5
:1002900011F410924F018F70833031F490914E0120
:1002A000923210F010924E0190914E01933218F458
:1002B0009F5F90934E01811107C080914F0184365A
:1002C00020F48F5F80934F0108958436E9F785E627
:1002D000F9CF88EC80937C0087E880937A002FEF39
:1002E00089EF90E0215080409040E1F700C000008D
:1002F00080917A00806480937A0080917A0086FDF4
:10030000FCCF60917800709179007727072E000C60
:10031000880B990B0E94B8022EEA37E242EA53E4B6
:100320000E94D70126EF38E24CE95FE30E944402C5
:100330000895809528989AE0EFE9F1E03197F1F778
:1003400000C0000080FF05C0289886959150A1F755
:100350000895289AFACF0E94680090E080E0DC01BE
:10036000AB5EBE4FFC01EE5AFE4F28E03E9131934A
:100370002150E1F708968034910589F70E94F90031
:10038000809151018F5F893258F4809351010E940E
:1003900039018FE39CE90197F1F700C00000F0CF2D
:1003A000109251010E9418010E94F900F0CF50589C
:1003B000BB27AA270E94EF010C940A030E94FC02AB
:1003C00038F00E94030320F039F49F3F19F426F41B
:1003D0000C94F9020EF4E095E7FB0C94F302E92F7C
:1003E0000E941B0358F3BA17620773078407950727
:1003F00020F079F4A6F50C943D030EF4E0950B2E55
:10040000BA2FA02D0B01B90190010C01CA01A00166
:100410001124FF27591B99F0593F50F4503E68F1C1
:100420001A16F040A22F232F342F4427585FF3CF02
:10043000469537952795A795F0405395C9F77EF4D3
:100440001F16BA0B620B730B840BBAF09150A1F01C
:10045000FF0FBB1F661F771F881FC2F70EC0BA0FA2
:10046000621F731F841F48F4879577956795B7952A
:10047000F7959E3F08F0B0CF9395880F08F0992725
:10048000EE0F9795879508950E9458020C940A03E1
:100490000E94030358F00E94FC0240F029F45F3FE1
:1004A00029F00C94F30251110C943E030C94F902C0
:1004B0000E941B0368F39923B1F3552391F3951B15
:1004C000550BBB27AA2762177307840738F09F5F75
:1004D0005F4F220F331F441FAA1FA9F335D00E2EE2
:1004E0003AF0E0E832D091505040E695001CCAF74F
:1004F0002BD0FE2F29D0660F771F881FBB1F261712
:1005000037074807AB07B0E809F0BB0B802DBF01E8
:10051000FF2793585F4F3AF09E3F510578F00C94B7
:10052000F3020C943E035F3FE4F3983ED4F38695C8
:1005300077956795B795F7959F5FC9F7880F911DD8
:100540009695879597F90895E1E0660F771F881FC4
:10055000BB1F621773078407BA0720F0621B730B77
:10056000840BBA0BEE1F88F7E0950895E89409C054
:1005700097FB3EF490958095709561957F4F8F4FD6
:100580009F4F9923A9F0F92F96E9BB279395F695EC
:10059000879577956795B795F111F8CFFAF4BB0F6A
:1005A00011F460FF1BC06F5F7F4F8F4F9F4F16C0CE
:1005B000882311F096E911C0772321F09EE8872F58
:1005C000762F05C0662371F096E8862F70E060E014
:1005D0002AF09A95660F771F881FDAF7880F96958D
:1005E000879597F9089597F99F6780E870E060E034
:1005F00008959FEF80EC089500240A9416161706BC
:1006000018060906089500240A9412161306140603
:1006100005060895092E0394000C11F4882352F066
:10062000BB0F40F4BF2B11F460FF04C06F5F7F4F1E
:100630008F4F9F4F089557FD9058440F551F59F005
:100640005F3F71F04795880F97FB991F61F09F3FBF
:1006500079F087950895121613061406551FF2CFE8
:100660004695F1DF08C0161617061806991FF1CF38
:1006700086957105610508940895E894BB2766275F
:0C0680007727CB0197F90895F894FFCF7D
:10068C00FF01000F0009070B0B0A010C02C6EEFE5E
:10069C00D6C6C6C6007CC6C6FEC6C6C600C66C3864
:1006AC0038386CC6007E6030180C0606003E63605D
:1006BC00300C067F00181C1E1818183C003E636393
:0E06CC007E60633E00000000000000000000A1
:00000001FF
