:100000000C9434000C943E000C943E000C943E0082
:100010000C943E000C943E000C943E000C943E0068
:100020000C943E000C943E000C943E000C943E0058
:100030000C943E000C943E000C943E000C943E0048
:100040000C943E000C943E000C943E000C943E0038
:100050000C943E000C943E000C943E000C943E0028
:100060000C943E000C943E0011241FBECFEFD8E04C
:10007000DEBFCDBF0E945A000C9470000C940000AB
:100080008CEF8AB91BB883E084B915B80895FC01D8
:1000900080818F3338F48BB18C5F8BB980818F5F17
:1000A000808308958F3329F410821BB885B18F5F48
:1000B00085B90895CF93DF931F92CDB7DEB719822C
:1000C0000E944000CE0101960E9447002FEF83EC72
:1000D00099E0215080409040E1F700C00000F2CF4D
:0400E000F894FFCFC2
:00000001FF
